:020000021000EC
:10200000487A002009A3020001A4020001A40200F2
:1020100000000000000000000000000000000000C0
:102020000000000000000000000000009994010082
:102030000000000000000000C195010009960100A9
:1020400001A4020001A4020001A4020059640200DC
:102050008559020001A40200A92C010001A402007C
:10206000ED2D0100FD6A0200156B02002D6B0200D0
:10207000456B02005D6B0200756B020051A202000D
:1020800065A2020079A20200857101009971010028
:10209000AD7101000000000000000000312B0100C4
:1020A00001A402006D2C010001A4020001A40200A1
:1020B0000000000010B5064C2378002B07D1054B1B
:1020C000002B02D0044800E000BF0123237010BDA4
:1020D000F002002000000000D0980300084B10B56B
:1020E000002B03D00749084800E000BF07480368F9
:1020F000002B00D110BD064B002BFBD09847F9E711
:1021000000000000F4020020D0980300D0980300E3
:102110000000000080B582B000AF78607B680022CC
:102120001A70C046BD4602B080BD000080B582B0C6
:1021300000AF02003960FB1D1A70FB1D1B78012BDC
:102140000AD0022B0FD0002B14D10E4B0D4A9169EF
:102150003A680A439A610FE00A4B0A4AD1693A6821
:102160000A43DA6108E0074B064A116A3A680A43F3
:102170001A6201E0172300E000231800BD4602B0F8
:1021800080BDC0460004004080B582B000AF7860DA
:102190007B6880221A707B6800225A707B6801225B
:1021A0009A707B680022DA70C046BD4602B080BDDE
:1021B00080B582B000AF0200FB1D1A70FB1D1B78BA
:1021C000002B02D0012B07D00DE0084B074A126C00
:1021D00002210A431A6406E0044B044A126C0421EB
:1021E0000A431A64C046BD4602B080BD00080040E4
:1021F00080B584B000AF78607B681B68FB60FB68CB
:102200005B7EDBB25BB2002B01DA012300E000232E
:102210001800BD4604B080BD80B582B000AF7860C4
:102220007B6800221A707B6800225A707B6800224B
:102230005A807B6800221A717B6800221A767B68BC
:1022400000221A627B680022DA617B6800229A60B1
:102250007B6800221A737B68C0225201DA817B6896
:1022600000221A747B6800225A747B6800229A74D8
:102270007B680022DA747B6800221A757B682A2248
:10228000002199547B6800225A757B6800229A7558
:102290007B682422002199547B680022DA847B68C1
:1022A00000221A857B680022DA757B682B220021C8
:1022B00099547B682C2200219954C046BD4602B037
:1022C00080BD000080B598B000AF78600C23FA188C
:1022D000154B1000190050231A00144B9847144B4B
:1022E000FB657B68132B1AD80C23FB187A689200C5
:1022F000D358FB650823FB1818000E4B984708239A
:10230000FB1800229A700823FB1801221A70FB6D3B
:10231000DBB20822BA1811001800074B9847C046D4
:10232000BD4618B080BDC046F8560300E542030024
:10233000FFFF000089210100D9950200F0B589B0A6
:1023400000AF786039601F23FB1800221A70102339
:10235000BB611723FB1800221A707B681B683B6166
:102360000C23FB181800CE4B98473B681A780C23B7
:10237000FB181A700C23FB1819001E20C94B984734
:102380001E20C94B98473B682C229B5C002B40D0F9
:102390001623FB183A682B21525C1A703B68197B94
:1023A0001523FB181622BA1812788A181A703B687F
:1023B0002C22995C0F23FB181522BA1812788A1860
:1023C0001A7018E01623FB181B780F2213403A6886
:1023D000127B9B181800B54B98471523FB181A78E9
:1023E0001523FB1801321A701623FB181A781623CE
:1023F000FB1801321A701523FA180F23FB181278F4
:102400001B789A42DED33B68DB891800A74B9847BC
:1024100009E03B681B7B1800A44B98473B68DB89AD
:102420001800A24B98473B685B7D9B00DAB23B6982
:102430001A703B689B7DDB015AB23B685B785BB2EC
:1024400013435BB2DAB23B695A703B681B79342B99
:1024500046D89A00964BD3181B689F461F23FB183B
:102460003A68527C1A701723FB183A68127C1A706B
:102470001023BB6136E01F23FB1801221A701723BB
:10248000FB1802221A701023BB612BE01F23FB18DC
:1024900002221A701723FB1804221A701023BB6142
:1024A00020E01F23FB1801221A701723FB180622B5
:1024B0001A701023BB6115E01F23FB1800221A704D
:1024C0001723FB1808221A701023BB610AE030237F
:1024D000BB6107E02023BB6104E00023BB6101E096
:1024E0001723AEE11F23FB181B781B01DBB2702200
:1024F0001340DAB21723FB181B781343DAB23B6997
:102500009A703B68DB7D3F2B01D9172399E13B682B
:10251000DA7D3B69DA70C0467B681800654B9847E6
:10252000031EF9D13B685A88BB699BB213439AB228
:102530003B6824215B5C9BB2DB009BB213439AB2E5
:102540003B681B7D9BB29B009BB213439AB23B68D6
:102550009B7C9BB2DB189BB213439AB23B68DB7C3B
:102560009BB213439AB23B699A803B681B7E002B57
:1025700000D1C4E0BB69102B00D176E002D8002B5B
:102580004DD0BCE0202B23D0302B00D0B7E03B68EF
:10259000DB7C002B11D03B68DB697F2B0BDC3B68BD
:1025A000DB69803307DB3B681B6A7F2B03DC3B68FE
:1025B0001B6A803301DA172343E13B68DB69FF2B99
:1025C00004DC3B681B6AFF2B00DC91E0172338E139
:1025D0003B68DB7C002B15D03B68DB69364A9342B5
:1025E0000EDC3B68DB69354A934209DB3B681B6ABA
:1025F000314A934204DC3B681B6A304A934201DA59
:1026000017231EE13B68DB692D4A934205DC3B68DA
:102610001B6A2B4A934200DC6CE0172311E13B68F4
:10262000DB7C002B15D03B68DB69264A93420EDC2D
:102630003B68DB69244A934209DB3B681B6A214AF9
:10264000934204DC3B681B6A1F4A934201DA17235A
:10265000F7E03B68DB691D4A934204DC3B681B6A78
:102660001A4A934248DD1723EBE03B68DB7C002BE2
:1026700032D03B68DB69164A93420EDC3B68DB696B
:10268000144A934209DB3B681B6A114A934204DCFB
:102690003B681B6A0F4A93421EDA1723D1E0C046FB
:1026A0001521010079920200BD920200C5220100AD
:1026B00048570300F1210100FF01000000FEFFFF69
:1026C000FF030000FF07000000F8FFFFFF0F0000FE
:1026D000FF7F00000080FFFF3B68DB695B4A93429D
:1026E00004DC3B681B6A594A934207DD1723A8E0C4
:1026F000C04604E0C04602E0C04600E0C046C04616
:102700007B681800524B9847031EF9D13B681A7E2C
:102710003B691A72C0467B6818004D4B9847031EF0
:10272000F9D13B68DB699AB23B699A83C0467B6802
:102730001800474B9847031EF9D13B681B6A9AB2B1
:102740003B691A841423FB183A682C21525C1A70D6
:102750001423FB181B78002B06D01423FB181A78BF
:102760001423FB18013A1A701423FB181B780F2B43
:1027700004D83B682B229B5C0F2B01D9172360E008
:10278000C0467B681800324B9847031EF9D13B685E
:102790009B683A682B21525C120513431422BA1825
:1027A0001278120413433A68D28913433A68127BB1
:1027B0001A433B691A613B682A229A5C3B691A7585
:1027C0003B690F229A753B6824229B5C002B1ED02C
:1027D0003B68DB8C1F4A934201D9172331E03B68E9
:1027E000DA8C3B699A843B6828229B5E1A4A9342A2
:1027F00005DC3B6828229B5E184A934201DA1723C6
:102800001FE03B6828229B5E9AB23B69DA84144B36
:102810001B68DB089BB21B029AB2E023DB0013406B
:102820009AB2104B5C681B686101DD0E0D43E60E29
:10283000ABB2FF210B409BB213439AB23B691A859E
:1028400000231800BD4609B0F0BDC046FFFF0000E0
:10285000F1210100FF0F0000FF07000000F8FFFF5B
:10286000246080002060800080B586B000AFF860F2
:10287000B9607A60FB68BA681A6080235B0219004D
:102880000220324B9847BB681B78DBB21A00012349
:10289000134001D0052355E0BB681B78DBB21A005A
:1028A0000223134001D01C234CE07B685A78FB685C
:1028B0001A71FB681B79002B02D10120244B984729
:1028C0001723FB1800221A700EE01723FB181A7842
:1028D000FB68023292000021D1501723FB181A78AE
:1028E0001723FB1801321A701723FB181B78022BD1
:1028F000EBD9FB6800229A76FB680022DA76FB6847
:1029000000221A83FB6800221A77124BFA681A60B9
:102910007B682A229B5C002B0AD17B681B7D0122ED
:102920005340DBB2002B03D0FB6801225A7702E050
:10293000FB6800225A777A68FB6811001800064B82
:10294000984703001800BD4606B080BD2D21010048
:10295000B1210100904500203D23010080B584B0E5
:1029600000AF78607B681B68FB60FB685B7EDBB256
:102970005BB2002B01DA012300E000231800BD4602
:1029800004B080BD80B584B000AF78607B681B6800
:10299000FB60C0467B6818000B4B9847031EF9D1BB
:1029A000FB681B7BDBB202221343DAB2FB681A73AB
:1029B000C0467B681800044B9847031EF9D1C046F7
:1029C000BD4604B080BDC0465D29010080B584B01D
:1029D00000AF78600A00FB1C1A707B681B68FB6004
:1029E000FB68FA1C12789A75C046BD4604B080BDDB
:1029F00080B584B000AF0200FB1D1A70FB1D1A7871
:102A0000474B9200D358FB60FB681B681B7EDAB211
:102A1000FB681B68DB7DDBB21340DBB2BB60BB68CD
:102A20000122134045D0FB681B6801221A76C0467C
:102A3000FB6818003B4B9847031EF9D1FB685B69A4
:102A4000991CFA685161FA681268528B92B21A8026
:102A5000FB681B8B9BB2013B9BB2FA68191C11836C
:102A6000002B08D0FB685B7F002B22D0FB6818008E
:102A70002D4B98471DE0FB68012118002B4B984710
:102A8000FB681B7FDBB2052B13D1FB6800221A7792
:102A9000FB68DB7E1A00012313400AD0FB689B7E93
:102AA0001A000123134004D0FB689B68FA681000E9
:102AB0009847BB680422134014D0FB681B680422AB
:102AC0001A76FB68DB7E1A00022313400AD0FB68EB
:102AD0009B7E1A000223134004D0FB68DB68FA686F
:102AE00010009847BB680222134014D0FB681B6893
:102AF00002221A76FB68DB7E1A00042313400AD0F8
:102B0000FB689B7E1A000423134004D0FB681B69FA
:102B1000FA6810009847C046BD4604B080BDC04664
:102B2000904500205D29010085290100CD29010083
:102B300080B500AF0020024B9847C046BD4680BD1F
:102B4000F129010080B582B000AF0200FB1D1A70B0
:102B5000074AFB1D1B7819001F230B4001219940D8
:102B60000B0019008023D150C046BD4602B080BD85
:102B700000E100E080B584B000AF0200FB1D1A70D8
:102B8000FB1D1A78374B9200D358FB60FB681B681B
:102B9000BB60BB689B79DBB21A00012313400ED0E7
:102BA000BB6801229A71FB681433002B07D0FB68C5
:102BB0005B7C002B03D0FB689B6900209847BB68B7
:102BC0009B79DBB21A000223134047D0BB68022274
:102BD0009A71FB689B899BB2002B33D0FB689A6883
:102BE000FB68DB899BB2591C88B2F968C8815B001D
:102BF000D3181B889AB2BB689A81FB689B899BB2E9
:102C0000013B9AB2FB689A81FB689B899BB2002BBF
:102C100018D1FB68202200219954BB6802221A7146
:102C2000BB6802229A7119200F4B9847FB68143336
:102C3000002B07D0FB689B7C002B03D0FB68DB6973
:102C400000209847FB681433002B07D0FB681B7CDF
:102C5000002B03D0FB685B6900209847C046BD4647
:102C600004B080BD94450020452B010080B500AF25
:102C70000020024B9847C046BD4680BD752B010021
:102C800080B500AF024B9847C046BD4680BDC046E8
:102C9000E555020080B500AF024B9847C046BD46DF
:102CA00080BDC0463956020080B586B000AF494BA2
:102CB0009847494B1B8C9BB2DAB21723FB180F21A4
:102CC0000A401A701723FB181A78444B9200D35805
:102CD0003B61414A3B691B780F210B40D9B23F232E
:102CE000D1543D490F23FB184E228A5C1A703B6970
:102CF0001B783B4A1B01D31802331B889BB2BB6075
:102D00003B691B78374A1B01D31802331B889BB2DF
:102D10007B60BA687B68D21A3B695A610F23FB1843
:102D20001B780122134016D02B4A4E230121D15487
:102D30003B6910225A743B691B7C1A000123134023
:102D400042D03B695B68002B3ED03B695B683A69C7
:102D50001000984738E00F23FB181B78022213401D
:102D600016D01D4A4E230221D1543B6900225A74C9
:102D70003B691B7C1A000223134025D03B699B68EA
:102D8000002B21D03B699B683A69100098471BE0F3
:102D90000F23FB181B780422134015D00E4A4E2334
:102DA0000421D1543B6906225A743B691B7C1A00EA
:102DB0000423134008D03B69DB68002B04D03B6937
:102DC000DB683A6910009847074B9847C046BD46F4
:102DD00006B080BD812C0100004800416003002046
:102DE000A045002010030020952C010080B582B082
:102DF00000AF154B1B697B60144B9B693B60124B0A
:102E00009A683B681A43104B9A60104B104A9A61BB
:102E100008E07B685A687B681B68180090477B68ED
:102E20009B687B607B68002BF3D1074BDB683B60C2
:102E3000054B9B683A68D2431A40034B9A60C046E0
:102E4000BD4602B080BDC046000000200004004224
:102E5000FFFF0F0F80B582B000AF02003960FB1D8D
:102E60001A70FB1D1B78012B0AD0022B0FD0002BF0
:102E700014D10E4B0D4A91693A680A439A610FE0EA
:102E80000A4B0A4AD1693A680A43DA6108E0074BFB
:102E9000064A116A3A680A431A6201E0172300E001
:102EA00000231800BD4602B080BDC04600040040AB
:102EB00080B500AF02210220074B9847074B012243
:102EC0001A70C046054B1B78DBB21A000123134071
:102ED000F8D1C046BD4680BD552E01000004004219
:102EE00080B584B000AF78607B681B68FB60FB68CE
:102EF000DB69072213405A1E9341DBB21800BD461E
:102F000004B080BD80B582B000AF7860C0467B68F9
:102F10001800044B9847031EF9D1C046BD4602B0C5
:102F200080BDC046E12E010080B584B000AF78605E
:102F30007B681B68FB60FB681B681B01DB0FDBB257
:102F40001A000B23FB18511E8A411A700823FB1824
:102F50007A68528B1A807B689B8B9AB20823FB1885
:102F60000821791809888A1A1A807B689B8B9BB282
:102F7000013B9AB27B689A830B23FB181B78002BCA
:102F800010D07B68DB7A002B1CD07B689B8B9BB2BC
:102F9000012B17D1FB685B688022D2021A43FB68C1
:102FA0005A600FE07B68DB7A002B0BD07B689B8B31
:102FB0009BB2002B06D1FB685B688022D2021A43C9
:102FC000FB685A607B689B8B9BB2002B0ED17B68A1
:102FD0009B7A002B0AD07B6818000E4B9847FB6841
:102FE0005B68C02292021A43FB685A607B68180033
:102FF000084B98477B681A6A0823FB181B88D3186C
:10300000FA682821525CD2B21A70C046BD4604B09C
:1030100080BDC046052F010080B584B000AF786048
:103020007B681B68FB60FB685B8B9BB21A00042308
:10303000134004D07B6825221E21995424E00A23E2
:10304000FB187A68528B1A807B689B8B9AB20A2392
:10305000FB180A21791809888A1A1A807B689B8BC9
:103060009BB2013B9AB27B689A837B681800084B3D
:1030700098477B681A6A0A23FB181B88D3181B78A9
:10308000D9B2FB6828229954BD4604B080BDC04621
:10309000052F010080B584B000AF78607B681B68A5
:1030A000FB60FB681B7EDBB21A00012313402BD0B0
:1030B000FB6801221A76FB685B8B9BB21A00022325
:1030C000134004D07B682522412199541CE0FB6801
:1030D0005B8B9BB21A000423134015D07B6825221A
:1030E000182199547B6800229A837B689B7A002B75
:1030F0000AD07B681800134B9847FB685B68C022B6
:1031000092021A43FB685A607B689B8B9AB27B6879
:103110005A837B6825229B5CDBB2052B0ED17B6832
:1031200024229B5CDBB2002B04D17B681800064B89
:10313000984703E07B681800044B9847C046BD469B
:1031400004B080BD052F010019300100292F0100B6
:1031500080B584B000AFF860B960FB1D1A70FB1D2C
:103160001B78FA6802339B00D3180433BA681A60DC
:10317000FB681B7EDBB25AB2FB1D1B780121994014
:103180000B005BB213435BB2DAB2FB681A76C0463F
:10319000BD4604B080BD000090B587B000AF786038
:1031A00039607B681B683B613B685A687B681A62C0
:1031B0003B685A887B689A837B6824220121995452
:1031C0007B682522052199543B691B681B01DB0F95
:1031D000DBB21A000F23FB18511E8A411A703B689C
:1031E0005B7A002B06D03B689A7A7B681100180046
:1031F0003B4B98470F23FB181B78002B0BD03B68E9
:103200005B88012B07D13B695B688022D2021A439D
:103210003B695A6005E03B695B68324A1A403B698A
:103220005A603B681B7A002B45D03B681B885A00CC
:103230003B685B7A9B0313431A0080231B021A43EB
:103240003B695A621723FC187B681800264B984785
:10325000030023703B695B68224A1A403B695A604D
:103260001723FB181B78002B07D11723FC187B684A
:1032700018001E4B9847030023701723FB181B7878
:10328000002B14D13B6903229A753B681B881B0AEB
:103290009BB2782213439BB25A003B685B7A9B0334
:1032A0001343012213431A003B695A6212E01723A9
:1032B000FB181B780FE03B6903229A753B681B885B
:1032C0005B0001221A433B685B7A9B0313431A009D
:1032D0003B695A6200231800BD4607B090BDC04646
:1032E00031710100FFFFFBFFD37001007570010019
:1032F00080B582B000AF786039607B689B8B9BB2F1
:10330000002B01D005230CE07B6801229A727B68B8
:103310000122DA723A687B6811001800034B984763
:1033200003001800BD4602B080BDC04699310100BF
:1033300080B584B000AF786039607B681B68FB6043
:103340003B685B7A002B06D03B689A7A7B68110059
:1033500018001E4B9847FB685B681D4A1A40FB68C3
:103360005A603B685A687B681A623B685A887B6877
:103370009A837B682422002199547B6825220521A9
:103380009954FB6803229A753B681B7A002B0DD079
:103390003B681B885A003B685B7A9B0313431A0007
:1033A00080231B021A43FB685A6209E03B681B88B2
:1033B0005A003B685B7A9B0313431A00FB685A620E
:1033C00000231800BD4604B080BDC0463171010025
:1033D000FFFFFBFF80B582B000AF786039607B688B
:1033E0009B8B9BB2002B01D005230CE07B68012254
:1033F0009A727B680122DA723A687B6811001800C1
:10340000034B984703001800BD4602B080BDC0467C
:103410003133010080B586B000AF0200FB1D1A7089
:10342000FB1D1A78934B9200D3587B617B691B6814
:103430003B613B691B681B01DB0FDBB21A000F23EA
:10344000FB18511E8A411A700E23FB187A69527EAE
:103450001A707B691B7EDAB20E23FB180E217918D5
:1034600009780A401A707B695B8B9BB2002B09D1EB
:103470007B699B8B9BB2002B04D07B6918007E4B31
:10348000984770E07B695B8B9BB2002B39D07B69DE
:103490009B8B9BB2002B34D17B6925229B5CDBB2DA
:1034A000052B2ED17B6924229B5CDBB2002B28D11B
:1034B0003B6903221A757B6900225A837B692522A6
:1034C000002199547B699B7A002B0BD07B691800F3
:1034D0006A4B98473B695B68C02292021A433B697A
:1034E0005A6002E03B6901221A760E23FB181B7812
:1034F0000122134037D07B69DB687A691000984756
:1035000031E07B695B8B9BB2002B2CD07B699B8B62
:103510009BB2002B27D03B695B8B9BB21A00202308
:10352000134011D10F23FB181B7801225340DBB24B
:10353000002B04D17B699B8B9BB2012B04D07B6950
:103540002522412199540EE07B6924229B5CDBB249
:10355000002B04D17B691800494B984703E07B6935
:103560001800484B98477B695B8B9BB2002B47D078
:103570007B699B8B9BB2002B42D17B6925229B5C94
:10358000DBB2052B3CD17B6924229B5CDBB2012B97
:1035900036D13B691B7EDBB21A000223134002D0F6
:1035A0003B6902221A763B6903221A757B69002265
:1035B0005A837B692522002199540E23FB181B781E
:1035C000022213400BD07B6924229B5CDBB2012BCF
:1035D00005D17B691B697A691000984710E00E23BA
:1035E000FB181B78012213400AD07B6924229B5CC4
:1035F000DBB2002B04D17B69DB687A691000984745
:103600007B6925229B5CDBB2052B2ED07B692522B2
:103610009B5CDBB2002B28D03B6903221A757B69C7
:1036200000225A837B6900229A837B6925229B5C56
:10363000DBB2412B0ED07B699B7A002B0AD07B69D1
:1036400018000E4B98473B695B68E022D2021A4390
:103650003B695A600E23FB181B780422134004D0E8
:103660007B695B697A6910009847C046BD4606B021
:1036700080BDC046B859002095300100052F0100DB
:1036800019300100292F010080B500AFBFF34F8F23
:10369000024B034ADA60BFF34F8FFEE700ED00E014
:1036A0000400FA0580B584B000AF0200FB1D1A705B
:1036B0000F23FB18FA1D1278D2091A700E23FB187B
:1036C000FA1D127852091A700D4BBB600F23FB18BC
:1036D0001B78002B0FD10F23FB181B789B001022A7
:1036E0009446BC446344083B1A680E23FB181B78BD
:1036F000DB01D31800E000231800BD4604B080BDF4
:103700000044004180B500AF024B9847C046BD461B
:1037100080BDC0468936010080B582B000AF02008E
:10372000FB1D1A70FB1D1B781800034B9847030004
:103730001800BD4602B080BDA536010080B584B03A
:1037400000AF0200FB1D1A70BB1D0A1C1A70FB1D86
:103750001B7818000D4B98470300FB60FB1D1B787E
:103760001F22134001229A401300BB60BB1D1B782F
:10377000002B03D0FB68BA689A6102E0FB68BA6864
:103780005A61C046BD4604B080BDC046193701002D
:1037900080B586B000AF78609A4B18009A4B984776
:1037A0009A4B1800984B9847994B1800964B98479E
:1037B000984B1800944B9847974B1800924B98479A
:1037C000964B1800904B9847954B18008E4B984796
:1037D0001723FB1800221A70924B1800924B98473F
:1037E000032200210120914B98470200904B1A6060
:1037F0008F4B1B68002B07D18E4B190003208E4B7B
:10380000984700208D4B98470C23FB1818008C4BD1
:1038100098470C23FB181B780A2B04D00C23FB18A9
:103820001B780D2B37D1874B18007F4B9847864B61
:1038300000221A70854B00221A708549854B31226F
:103840001800854B9847834B3122002199548349B6
:103850007F4B64221800824B984703003B617F4BEB
:103860006322002199547D4B18006F4B98473B69A8
:10387000002BECD11723FB1800221A70744B322254
:1038800000211800774B9847744B642200211800E0
:10389000744B9847B5E06C4B1B78002B59D06B4BA1
:1038A0001B78032B0CD8694B1B785A1CD1B2674A82
:1038B00011701A000C23FB1819786B4B995405E012
:1038C000614B00221A70614B00221A705F4B1B780B
:1038D000012B99D9654A644B11001800644B984735
:1038E000031E2FD063495A4B1B221800624B984786
:1038F000574B18004C4B98471723FB1800221A709F
:10390000534B322200211800564B98475149504BD7
:1039100031221800504B98474D4B1800574B984791
:103920000300302B06D84B4B1800544B984703002C
:10393000DAB200E031221723FB181A70444B18004A
:10394000394B9847404B00221A70404B00221A70A6
:103950005AE70C23FB181B780D2B00D154E70C23DE
:10396000FB181B78082B04D00C23FB181B787F2B2B
:103970001CD10823FB18424A12681A600823FB185E
:103980001800294B98471723FB181B78002B37D0BA
:103990001723FB181A781723FB18013A1A701723FC
:1039A000FB181B782A4A0021D15429E00C23FB186C
:1039B0001B781B2B06D1244B01221A70234B0022AB
:1039C0001A7021E71723FB181B78312B0ED8172309
:1039D000FB181B780C22BA1811781D4AD1541723F2
:1039E000FB181A781723FB1801321A700C23FB18E6
:1039F00000225A700C23FB1818000B4B984703E762
:103A0000C04601E7205A030079720100805A030082
:103A1000305A0300405A0300505A0300605A030012
:103A2000705A03001C580300A5D1010045980100FD
:103A3000F04500206459030091D2010031B6010025
:103A4000853A010084590300840300208503002087
:103A5000BC0300208803002003470300F00300207C
:103A6000E97201001B43030054040020885903003D
:103A70001D4603008C590300D9450300D3460300BB
:103A80009459030080B584B000AF78607B6818005B
:103A90000C4B98470300FB600DE00B4B1A680123A9
:103AA0005B4219001000094B98477B681800054BD2
:103AB00098470300FB60FB680133EED0C046BD466B
:103AC00004B080BD41D20100F0450020FDA70100F7
:103AD00080B500AF0A4B00221A600A4B1B68084AE7
:103AE00011001800084B9847054B1B68002B03D0AA
:103AF000064B802252051A60C046BD4680BDC046B6
:103B000058040020F045002075A1010004ED00E0FC
:103B100090B587B000AFF860B9607A601723FB18E2
:103B20001B221A701723FB181B78084A08480F211C
:103B3000084CA047064AB968FB681800054B98472F
:103B400000231800BD4607B090BDC0469859030039
:103B5000740300207545030080B584B000AFF860A1
:103B6000B9607A600220064B9847064B1800064B56
:103B70009847064B984700231800BD4604B080BD07
:103B800005680100204E000051B501000537010015
:103B900080B584B000AFF860B9607A60034B984795
:103BA00000231800BD4604B080BDC04605370100A3
:103BB00090B58FB000AFF860B9607A601823FB1839
:103BC00000221A701823FB1800225A701823FB18C1
:103BD00000221A701823FB1800225A701C23FB18AD
:103BE00000221A701C23FB181422BA189A601C2396
:103BF000FB180122DA811C23FB181822BA185A601C
:103C00001C23FB1801229A812A4B18002A4B984743
:103C100000237B6342E07B6B284A29480F21294C13
:103C2000A047274B1800244B984700233B632BE009
:103C30007B6BDAB23B6BDBB2D318DAB21C23FB1816
:103C40001A701C23FB186422642118001E4B98472D
:103C50000300FB62FB6A002B0CD11C23FB181B78B2
:103C60001A4A17480F21174CA047154B1800124B42
:103C7000984706E0124B164A1A60114B18000E4B7B
:103C800098473B6B01333B633B6B0F2BD0DD114BF4
:103C90001800094B98477B6B10337B637B6B7F2B42
:103CA000B9DD0C4B1800044B984700231800BD46A3
:103CB0000FB090BDA0590300A5D10100D459030055
:103CC000740300207545030061480100DC590300BE
:103CD000582020008459030090B58BB000AF0B4BE7
:103CE0009847031C7B620A4B786A984703009BB293
:103CF000084A381D1E21084CA0473B1D1800074BE1
:103D0000984700231800BD460BB090BDC14A010082
:103D100051220300E459030075450300A5D10100B9
:103D200080B500AF054B1800054B984701212220B4
:103D3000044B984700231800BD4680BDFC59030082
:103D4000A5D101003D37010080B500AF0021222040
:103D5000044B9847044B1800044B98470023180065
:103D6000BD4680BD3D370100105A0300A5D10100BA
:103D700080B584B000AF0200FB1D1A700F23FB1842
:103D8000FA1D1278D2091A700E23FB18FA1D127848
:103D900052091A700D4BBB600F23FB181B78002BC8
:103DA0000FD10F23FB181B789B0010229446BC44B4
:103DB0006344083B1A680E23FB181B78DB01D318F9
:103DC00000E000231800BD4604B080BD004400415F
:103DD00080B582B000AF0200FB1D1A70FB1D1B787E
:103DE0001800034B984703001800BD4602B080BD81
:103DF000713D010080B584B000AF0200FB1D1A7058
:103E0000BB1D0A1C1A70FB1D1B7818000D4B984730
:103E10000300FB60FB1D1B781F22134001229A4008
:103E20001300BB60BB1D1B78002B03D0FB68BA6876
:103E30009A6102E0FB68BA685A61C046BD4604B0A8
:103E400080BDC046D13D010090B591B000AF786013
:103E50007C4B98473F23FB1800221A703E23FB1827
:103E600000221A703D23FB1800221A701423FB183D
:103E700000221A701023FB1800221A703C23FB1832
:103E800000221A703A23FB1800221A800C23FB1818
:103E900000221A806C4B9847031C7B636B4B786B3A
:103EA000984703009AB21823FB181A801823FB18AE
:103EB0001800674B9847674B6749786B9847031E14
:103EC00000D1A5E01023FB181800644B98473F234E
:103ED000FB1800221A7094E02C23FB180822002102
:103EE00018005F4B98472023FB180C220021180074
:103EF0005B4B98473D23FC182023FA182C23FB1812
:103F000011001800574B9847030023703D23FB18FE
:103F10001B78142B04D83E23FB1801221A7008E0EA
:103F20003D23FB181B784F2B03D93E23FB1800229F
:103F30001A703E23FB181B78012B11D14A4B1B78BA
:103F4000012B0DD101212220484B98471423FB1847
:103F500001221A701423FB181800454B984739E0CA
:103F600000212220414B98473D23FA183C23FB189F
:103F700012781B789A4213D23C23FB181A783D23FF
:103F8000FB181B78D31A9BB21A1C1201D31ADB1828
:103F900099B23A23FB183A22BA1812888A181A8062
:103FA0000C23FB183A22BA1812881A800C23FB182B
:103FB0001800304B98473C23FB183D22BA18127862
:103FC0001A701423FB1800221A701423FB1818000F
:103FD000274B98471C23FB183D22BA1812781A70F9
:103FE0001C23FB181800244B9847FA235B00180089
:103FF000224B98473F23FB181A783F23FB180132C6
:104000001A703F23FB181B780A2B00D864E741E79E
:1040100000212220154B98471C23FB183D22BA187B
:1040200012781A701C23FB181800134B98471023A2
:10403000FB1801221A701023FB181800074B984731
:1040400028E7C046154D0100C14A01005122030076
:1040500065680100AD21030000004843E9680100E4
:104060001B4303004D4E010014000020F53D0100EC
:1040700091680100BD6801003968010051B5010077
:1040800080B582B000AF0200FB1D1A70064BFA1D0E
:10409000127811001F220A40012191400A001A6083
:1040A000C046BD4602B080BD00E100E080B584B0EE
:1040B00000AF78607B681B68FB60FB68DB690722E8
:1040C00013405A1E9341DBB21800BD4604B080BDB8
:1040D00080B582B000AF7860C0467B681800044BA2
:1040E0009847031EF9D1C046BD4602B080BDC04608
:1040F000AD40010080B582B000AF78607B6864227B
:104100001A607B681B4A5A607B6800229A607B6851
:1041100000221A737B6800221A767B688022920341
:104120001A617B6801225242DA827B680122524284
:104130009A827B680022DA617B6800221A627B68BF
:104140002422002199547B6800229A627B682C22E9
:10415000002199547B682D22002199547B682E22DE
:10416000002199547B68D7221A86C046BD4602B00A
:1041700080BDC046480D000080B584B000AF7860B7
:104180007B681B68BB600023FB607B681800144BD6
:104190009847BB681B6802221A43BB681A607B6899
:1041A0001B6818000F4B9847030018000E4B9847E8
:1041B0000CE0FB680133FB607B68DB881A00FB685E
:1041C0009A4203D8BB6810225A8306E0BB685B8B17
:1041D0009BB21A0010231340EBD0BD4604B080BD43
:1041E000D1400100B96A02008140010080B582B06F
:1041F00000AF78600A00FB1C1A707B685B7EDBB244
:104200005AB2FB1C1B78012199400B005BB213438F
:104210005BB2DAB27B685A76C046BD4602B080BD5A
:1042200090B591B000AF0023FB633A23FB18002246
:104230001A703B1D1800214B98473B1D204ADA613C
:104240003B1D204A1A623B1DFA229200DA823B2370
:10425000FB1803221A701EE03A23FC183A1D1A4973
:104260001A4B18001A4B9847030023703A23FB1887
:104270001B78002B04D13A23FB181B78FB630FE05B
:10428000124B1800134B98473B23FB181A783B231B
:10429000FB18013A1A703B23FB181B78002BDBD16B
:1042A000FB6B002B04D1094B18000B4B984700E027
:1042B000C046FB6B1800BD4611B090BDF540010033
:1042C0000200080002000900000800421846002011
:1042D000D96E01000D7001007941010080B584B0F4
:1042E00000AF78600E4B00221A700D4B01229A60CD
:1042F0000023FB600B4B1B680C22BA18110018003E
:10430000094B9847094B00221A70FB68002B03D019
:10431000074B802252051A60C046BD4604B080BDDE
:10432000600400204046002075A101005C040020CC
:1043300004ED00E080B584B000AF78600E4B002241
:104340001A700D4B01229A600023FB600B4B1B6817
:104350000C22BA1811001800094B9847094B00228B
:104360001A70FB68002B03D0074B802252051A609D
:10437000C046BD4604B080BD600400204046002019
:1043800075A101005C04002004ED00E080B584B05C
:1043900000AF78600E4B00221A700D4B01225A605C
:1043A0000023FB600B4B1B680C22BA18110018008D
:1043B000094B9847094B01221A70FB68002B03D068
:1043C000074B802252051A60C046BD4604B080BD2E
:1043D000600400204046002075A101005C0400201C
:1043E00004ED00E080B500AF1149124B0022180027
:1043F000114B98470F4B00211800104B984710495C
:104400000C4B012218000C4B98470A4B0121180055
:104410000A4B98470B49074B02221800064B984756
:10442000044B02211800054B9847C046BD4680BD8D
:10443000DD4201001846002051310100ED4101002C
:10444000354301008D43010080B582B000AF0023E9
:104450007B60144B984703007B607B68002B1AD16C
:10446000114B98470120114B98470200104B1A60DE
:104470000322002101200F4B984702000E4B1A60C7
:104480000B4B1B68002B03D00B4B1B68002B03D17D
:1044900006237B6000E0C0467B681800BD4602B082
:1044A00080BDC04621420100E5430100AD9A0100F4
:1044B00014460020459801004046002090B585B084
:1044C00000AF78600023FB607B68002B03D07B6823
:1044D0005B68002B03D108235B42FB601FE07B6815
:1044E0001B789AB2104B1A807B685A680E4B5A6040
:1044F0007B68DA890C4B5A800B23FC180A4A0B4B59
:10450000110018000A4B9847030023700B23FB1877
:104510001B78002B03D006235B42FB60C046FB6880
:104520001800BD4605B090BD444600201846002046
:10453000D533010090B585B000AF78600023FB60F3
:104540007B68002B03D07B685B68002B03D10823BA
:104550005B42FB601FE07B681B789AB2104B1A80AD
:104560007B689A680E4B5A607B689A890C4B5A801C
:104570000B23FC180A4A0B4B110018000A4B9847F2
:10458000030023700B23FB181B78002B03D006239A
:104590005B42FB60C046FB681800BD4605B090BD9D
:1045A0004446002018460020F132010090B583B047
:1045B00000AF00237B60094B186800230022002114
:1045C000074CA0470300012B02D014235B427B6001
:1045D0007B681800BD4603B090BDC046144600205D
:1045E000ED9A010080B584B000AF78600023FB60D5
:1045F000084B1B687A6811001800074B98470300A6
:10460000012B02D01D235B42FB60FB681800BD46F6
:1046100004B080BD14460020FDA7010080B584B021
:1046200000AF78600023FB60044B1A687B681A6057
:10463000FB681800BD4604B080BDC046404600205F
:1046400080B500AF024B1B781800BD4680BDC04648
:104650005C04002080B582B000AF0200FB1D1A7020
:10466000034BFA1D12781A70C046BD4602B080BDD9
:104670005C04002080B584B000AF7860396000230E
:10468000FB600023BB6096235B001800284B984713
:104690000300FB60FB68002B38D10823FB181800CF
:1046A000244B98470300FB60FB68002B30D17B68EC
:1046B0001800214B98470300FB60FB68002B2AD1B0
:1046C000BB683A68110018001C4B98470300012B87
:1046D00011D11B4B9847031E11D00020194B98474E
:1046E000FB68002B03D021235B42FB6014E0032313
:1046F0005B42FB6010E003235B42FB600CE0124B6B
:1047000098470200FB681343FB6002E0C04600E0EC
:10471000C046FB6807E0C0460B4B98470200FB68A9
:104720001343FB60FB681800BD4604B080BDC04663
:10473000E54501001D460100BD440100FDA7010043
:104740004146010055460100AD45010080B586B0E7
:1047500000AFF860B9607A6000237B6100233B61A1
:1047600096235B001800354B984703007B617B69FB
:10477000002B55D11023FB181800314B984703002C
:104780007B617B69002B4DD1FB6818002D4B98474E
:1047900003007B617B69002B47D13B697A6811007C
:1047A0001800294B98470300012B18D1274B984735
:1047B000031E06D00020264B984703235B427B61F3
:1047C00034E0BB681800234B9847FB681800224B65
:1047D000984703007B617B69002B04D026E003230C
:1047E0005B427B6122E03B697A6811001800164B3E
:1047F00098470300012B0AD1144B9847031E0AD097
:104800000020134B984703235B427B610EE0032398
:104810005B427B610AE0114B984703007B6102E039
:10482000C04600E0C0467B6903E0C0460B4B98479A
:104830007B691800BD4606B080BDC046E545010055
:104840001D460100BD440100FDA7010041460100D5
:104850005546010051B5010035450100AD45010047
:1048600080B586B000AFF860B9607A6000237B61E4
:1048700000233B6196235B001800244B98470300FC
:104880007B617B69002B33D11023FB181800204B70
:10489000984703007B617B69002B2BD1FB681800D4
:1048A0001C4B984703007B617B69002B25D13B693A
:1048B0007A6811001800184B98470300012B13D198
:1048C000164B9847031E06D00020154B984703232C
:1048D0005B427B6112E0BB681800124B9847124B99
:1048E000984703007B6106E003235B427B6105E0A0
:1048F000C04600E0C0467B6903E0C0460A4B9847CB
:104900007B691800BD4606B080BDC046E545010084
:104910001D460100BD440100FDA701004146010004
:104920005546010051B50100AD45010080B584B088
:1049300000AF78607B681B68FB60FB685B7EDBB266
:104940005BB2002B01DA012300E000231800BD4612
:1049500004B080BD80B586B000AF78607B681B680E
:104960003B613B691B7EDBB2FB6000237B61FB6824
:104970000122134003D07B69012213437B61FB6852
:104980000422134003D07B69022213437B61FB683E
:104990000222134003D07B69042213437B617B69AD
:1049A0001800BD4606B080BD80B584B000AF786009
:1049B00039607B681B68BB600023FB603B68012299
:1049C000134003D0FB6801221343FB603B680222C3
:1049D000134003D0FB6804221343FB603B680422AE
:1049E000134003D0FB6802221343FB60FB68DAB27A
:1049F000BB681A76C046BD4604B080BD80B584B0A1
:104A000000AF78607B681B68FB60C0467B6818005D
:104A10000B4B9847031EF9D1FB681B7BDBB20222CC
:104A20001343DAB2FB681A73C0467B681800044B64
:104A30009847031EF9D1C046BD4604B080BDC046AC
:104A40002D49010080B584B000AF786039607B6883
:104A50001800184B984702000123134001D1052389
:104A600023E07B681B68FB60C0467B681800124B24
:104A70009847031EF9D1FB685B8B9AB23B681A809A
:104A80007B68012118000D4B98477B681800094B83
:104A9000984702000423134006D07B6804211800C5
:104AA000064B98471E2300E000231800BD4604B0C3
:104AB00080BDC046554901002D490100A9490100AA
:104AC000F0B589B000AF162308229446BC44634475
:104AD00000221A80132308229446BC4463440A220D
:104AE0001A70142308229446BC44634400221A809E
:104AF00038E0724B1800724B98470A23FA186F4B34
:104B0000110018006F4B98470300052BF5D00A20C1
:104B10006D4B9847102308229446BC4463440A22F4
:104B2000BA1812881A80162308229446BC4463449B
:104B30001622082179188918102208208446BC44BE
:104B40006244098812888A181A801423082294461D
:104B5000BC4463441A88142308218C46BC44634433
:104B600001321A80132308229446BC4463441B7804
:104B70009BB2142208218C46BC44624412889A429B
:104B8000B7D3162308229446BC4463441A881323DF
:104B900008218C46BC44634419784C4B100098475C
:104BA00003001A004A4B10009847031C7B61494BD5
:104BB00078699847484C494A494BA04703000C0084
:104BC00018002100474C0022474BA04703000C006F
:104BD00019002200454B080011009847031C3B6157
:104BE0003C4B3869984702000B003E4C4048414915
:104BF000A04703000C001D002600364B386998477B
:104C000002000B00344C28003100A04703000C00C8
:104C10001D0026002F4B3869984702000B002E4CD0
:104C200028003100A04703000C001D002600294B7E
:104C300038699847284C304A304BA04703000C0095
:104C40003B607C60234B3869984702000B00224C84
:104C500038687968A04703000C001A002300284C2C
:104C600028003100A04703000C001D002600194B4E
:104C700038699847184C234A234BA04703000C007F
:104C80001A002300214C28003100A04703000C002B
:104C900018002100104C00221D4BA04703000C00FF
:104CA00019002200114B080011009847031CFB60FB
:104CB000FB68181CBD4609B0F0BDC046F445002095
:104CC000FD490100454A010051B50100B11F030033
:104CD0004927030075400300713403006666666669
:104CE00066660A40092E03000000B0401941030027
:104CF0003D0AD7A370AD6040EC51B81E85FB6F40F4
:104D00007139030085EB51B81ECB8A40E9270300B7
:104D10000000E03F80B582B000AF3B000D4A128832
:104D20001A800D4B77221A700B4B3A005A600A4BCF
:104D30000222DA81084B00229A81074BFF211800DA
:104D4000064B984703007B607B681800BD4602B0A5
:104D500080BDC046905A03005046002075460100B1
:104D600080B584B000AF78600A00FB1C1A7008237D
:104D7000FB18134A12881A80124B77221A70114BB3
:104D80000822BA185A600F4B0122DA810D4B7A685B
:104D90009A600C4B08229A810A4BFF22FF211800CF
:104DA000094B98470300FB60FB68002B03D0074BBF
:104DB0001800074B9847FB681800BD4604B080BD3B
:104DC000905A0300504600204D470100945A0300BA
:104DD000A5D1010080B584B000AF78600A00FB1C4B
:104DE0001A700823FB18144A12881A80134B782271
:104DF0001A70124B0822BA1801325A600F4B012266
:104E0000DA810E4B7A689A600C4B0C229A810B4B1C
:104E1000FF22FF2118000A4B98470300FB60FB6844
:104E2000002B03D0074B1800074B9847FB6818006E
:104E3000BD4604B080BDC046905A030050460020D5
:104E40004D470100945A0300A5D1010080B588B0F8
:104E500000AF786039607B6804211800304B9847B8
:104E60000300FB6032202F4B98473B680421180059
:104E70002D4B98470300FB600023FB611B23FB18AD
:104E800000221A7000237B6110E07B697A68D318D6
:104E90001B78642B07D901227B699A4013001A0002
:104EA000FB691343FB617B6901337B617B69072BE2
:104EB000EBDD00233B6110E03B693A68D3181B78B7
:104EC000642B07D93B69083301229A401300FA6921
:104ED0001343FB613B6901333B613B690B2BEBDD0A
:104EE00009E01B23FB181A781B23FB1801321A70E8
:104EF000FB695B08FB61FB6901221340F1D10B23C5
:104F0000FA181B23FB181B78191C8900CB18137087
:104F10000B23FB181B781800BD4608B080BDC046A7
:104F2000614D010051B50100D54D010080B584B03F
:104F300000AF0200FB1D1A700F23FB18FA1D127838
:104F4000D2091A700E23FB18FA1D127852091A7032
:104F50000D4BBB600F23FB181B78002B0FD10F23C9
:104F6000FB181B789B0010229446BC446344083B0A
:104F70001A680E23FB181B78DB01D31800E000230E
:104F80001800BD4604B080BD0044004180B582B029
:104F900000AF0200FB1D1A70FB1D1B781800034BAD
:104FA000984703001800BD4602B080BD2D4F010098
:104FB00080B584B000AF0200FB1D1A70BB1D0A1C37
:104FC0001A70FB1D1B7818000D4B98470300FB60FF
:104FD000FB1D1B781F22134001229A401300BB6067
:104FE000BB1D1B78002B03D0FB68BA689A6102E0F6
:104FF000FB68BA685A61C046BD4604B080BDC04671
:105000008D4F010080B500AF024B00221A70C046E0
:10501000BD4680BD9D04002080B582B000AF020077
:10502000FB1D1A70FB1D1B785BB2DB435BB2064AAB
:10503000127852B213405BB2DAB2034B1A70C04618
:10504000BD4602B080BDC0469D04002080B582B040
:1050500000AF0200FB1D1A70054B1A78FB1D1B7870
:105060001343DAB2024B1A70C046BD4602B080BD8F
:105070009D04002080B582B000AF0200FB1D1A70B5
:10508000064B1B78FA1D12781340DBB25A1E93416F
:10509000DBB21800BD4602B080BDC0469D040020B2
:1050A00090B585B000AF786039607B68002B02D086
:1050B0003B68002B01D1002313E00F23FC18396853
:1050C0000A4B002218000A4B984703002370074B35
:1050D0001800084B98470F23FB181B785A4253417E
:1050E000DBB21800BD4605B090BDC046D00600201A
:1050F0003DCD02003DD7020080B59EB000AFF86004
:10510000B960FB1D1A707623FB1801221A807423E4
:10511000FB1800221A806E23FB1800221A807223CB
:10512000FB1800221A802423FB18180041231A00C0
:105130000021924B98471823FB18180009231A00E6
:1051400000218E4B98471423FB1800221A6000237D
:10515000BB667123FB1800221A70BB68002B01D1BB
:10516000002306E1BA68FB6811001800844B9847D9
:1051700003001A0001235340DBB2002B01D00123AE
:10518000F7E0BB6818007F4B98470300402B01D91C
:105190000023EEE0BB682E2118007B4B98470300EC
:1051A000BB66BB6E002B52D0BB6E1800754B984788
:1051B00002006E23FB181A806E23FB181B88072B36
:1051C00037D87123FB1801221A70BA6E1823FB1806
:1051D000110018006D4B9847BB681800694B984741
:1051E00002006E23FB181B88D31A3C2B11D97423A1
:1051F000FB186E22BA1812883C218A1A1A8074236E
:10520000FB181A88B9682423FB181800604B9847CC
:105210002AE0BA6EBB68D21A7423FB181A80742372
:10522000FB181A88B9682423FB181800584B9847B4
:105230001AE07423FB183C221A807423FB181A8886
:10524000B9682423FB181800514B98470CE07423CD
:10525000FB183C221A807423FB181A88B96824238F
:10526000FB1818004A4B98477423FB181B887422BC
:10527000BA18591C11801A002423FB182D219954A7
:105280007623FB1800221A807223FB1801221A8051
:1052900010E07223FA187223FB181B88191C89006E
:1052A000CB18DB1813807623FB181A887623FB189B
:1052B00001321A807623FB181B88022BE9D976234A
:1052C000FB1801221A804BE07623FB181A8831491B
:1052D0001423FB181800304B98477423FB181B88C5
:1052E0002422BA18D3181422B91803221800284B04
:1052F00098477123FB181B78002B0CD07423FB18E4
:105300001B8803332422BA18D3181822BA181100A4
:1053100018001E4B98472423FA18FB681100180048
:10532000174B984703001A0001235340DBB2002BB0
:105330000FD0FB1D1A78BB68002118000F4B98474F
:105340002423FA18BB6811001800104B984701235A
:105350000FE07623FB181A887623FB1801321A8097
:105360007623FA187223FB1812881B889A42ABD353
:1053700000231800BD461EB080BDC0461B4303007D
:10538000A1500100D34603002D47030087460300C8
:1053900003470300CC5A0300D945030090B583B0FE
:1053A00002AF0120224B984703001A00012353400B
:1053B000DBB2002B05D01F4B190001201E4B984774
:1053C00032E002201A4B984703001A000123534091
:1053D000DBB2002B05D0194B19000120164B984762
:1053E00022E00420124B9847031E05D0144B1900ED
:1053F0000120114B984717E008200D4B9847031EDA
:1054000005D0104B190001200B4B98470CE00E4BB8
:1054100019000120084B98470C490D4800230093C0
:10542000002301220B4CA047BD4601B090BDC046F1
:1054300075500100D45A030091D20100005B0300B3
:105440002C5B0300585B0300845B0300B05B03002C
:10545000B846002091030300B0B586B000AF786075
:1054600039607B68002B02D03B68002B05D1584B7C
:1054700019000120574B9847A6E00820564B984743
:1054800003001A0001235340DBB2002B55D0002348
:105490007B61524B30221A70504B3A225A70504B5B
:1054A0007B6102E07B69013B7B617B691B782F2B71
:1054B000F8D17B6918004B4B98470300012B24D986
:1054C0007B6901337B617A69474B11001800474BB8
:1054D00098474249464B40221800464B98473F4A5E
:1054E000454B190001203B4B98471323FC183B49BF
:1054F0003F4B0A221800414B9847030023701323A7
:10550000FB181B78002B12D008E03D4B190001203E
:10551000304B984720203B4B984755E01323FB180E
:105520001A78394B190001202A4B98474CE0374B29
:1055300000221A600820334B98477B68002B43D029
:105540000023FB601323FC180C23FB183A687968CE
:1055500027482F4DA847030023701323FB181B78FF
:10556000002B0CD0224B18002A4B98472020254BAB
:105570009847294B19000120164B984724E0234BEC
:105580001A68FB68D218214B1A60204B1A68234B0B
:105590001B68234901200F4CA0471C4B1A681F4B66
:1055A0001B689A4210D3124B18001A4B98471D4B98
:1055B00019000120074B9847002117201A4B9847E4
:1055C0001020104B9847C046BD4606B0B0BDC0463F
:1055D000D85B030091D20100755001009C000020AF
:1055E000D75B0300D34603009E00002087460300DC
:1055F000D0060020F95001003C5C03003DCD0200C4
:10560000FC5B03004D500100645C0300F8060020C1
:105610006DD202003DD70200985C0300F406002022
:10562000D45C0300085D0300B14F010090B585B064
:1056300000AFF860B9607A60BB68042B00D977E0EE
:10564000BB689A003C4BD3181B689F463B4B190024
:1056500001203B4B98476BE03A4B19000120384B37
:1056600098470420384B984762E07B681B881A00F3
:105670007B685B6835490120314CA0477B681B88FB
:10568000C82B0DD17B685A68314B1A60314B002210
:105690001A607B685A6880239B009A4243D803E0D3
:1056A0002020294B984743E07B689A687B685B68B9
:1056B00019001000284B98471020234B984732E0E0
:1056C0007B685A687B681B6819001000224B98475A
:1056D0007B681B7A002B28D010201B4B984724E0B6
:1056E0007B681A681D4B19000120154B98477B6891
:1056F0001B680B331BD10820194B9847031E06D09B
:10570000184B1800184B98470820184B984704204E
:10571000134B9847031E02D00420144B9847144B98
:105720009847C04603E0C04602E0C04600E0C046DD
:10573000BD4605B090BDC046006403003C5D03005B
:1057400091D20100745D03004D500100A05D030083
:10575000F4060020F806002059540100DC5D030027
:1057600075500100D00600203DD7020019500100FD
:105770009D53010080B582B000AF3A60FB1D021C52
:105780001A70BB1D0A1C1A703A68BB1D1978FB1DE4
:105790001B785BB21800034B9847C046BD4602B069
:1057A00080BDC046A1000300B0B586B004AF7860EC
:1057B00039603B68FF2213401C003B681B0A1A003B
:1057C000FF2313403A68120C1100FF220A40396887
:1057D000090E0D0078680949029501920093230093
:1057E00002000120064CA0473A687B6811001800AF
:1057F000044B9847C046BD4602B0B0BD0C5E0300E6
:1058000091D201000502030090B587B002AF0200FB
:105810003960FB1D1A70FB1D1B782C2B02D0322B1C
:105820003DD06FE03B68FB60FB681B78012B07D124
:10583000364B19000120364B9847364B98475EE0AF
:10584000FB681B78002B5AD1334B19000120304BD9
:1058500098470220314B98470820314B9847031E48
:1058600006D0304B1800304B984708202B4B9847F8
:1058700004202B4B9847031E02D00420274B984747
:105880002A4B012118002A4B98472A4A2A48FF230D
:105890000093130002220721284CA0472FE03B6809
:1058A000BB60BB681B781800BB6801331B781C0009
:1058B000BB6802331B781A00BB6803331B7820498E
:1058C00001930092230002000120114CA047022006
:1058D0001C4B98471C4B1B78012B02D11B4B984744
:1058E0000FE01B4A114B110018001A4B9847031E7A
:1058F00007D0194B19000120054B984701E0C0461D
:1059000000E0C046C046BD4605B090BD3C5E030009
:1059100091D20100711802005C5E03001950010071
:1059200075500100D00600203DD70200FC06002083
:105930004DED0200805E03008C5E03009D130200AB
:10594000945E03004D5001009C0400209D53010013
:10595000B85A030019EC0200BC5E030090B583B096
:1059600000AF294B9847294B19000120284B984735
:10597000FC1D0020274B984703002370FB1D1B785C
:10598000012B10D1244B19000120214B9847234BA8
:10599000190001201E4B9847C0460020204B984715
:1059A0000300022BF9D1FB1D1B78002BE0D11D4B0E
:1059B00019000120164B98478C239A001A4B00219E
:1059C00018001A4B9847BC1D174B19000020184BA4
:1059D000984703002370BB1D1B780B2B07D1BB1D01
:1059E0001A78144B19000120094B984708E0124B14
:1059F00019000120064B98470120104B9847C046DC
:105A0000BD4603B090BDC046A9E00100E05E0300C2
:105A100091D2010085E50100185F0300405F03009B
:105A2000F9E00100745F0300A00400201B430300A1
:105A3000E5CC0200985F0300C85F03004D500100F1
:105A400080B582B000AF3B1D1800084B98473A1D47
:105A5000074B11001800074B9847054B1800064BE1
:105A60009847C046BD4602B080BDC0463518030009
:105A700060460020591803004519030080B588B01E
:105A800000AF3B001800124B98473B008022920069
:105A90001A613B000F4A5A603A000F4B1100180080
:105AA0000E4B98470300FB61FB69002B06DAFA698D
:105AB0000B4B190001200B4B9847FEE70A4A064B97
:105AC00011001800094B9847C046BD4608B080BD7C
:105AD000C9FE020060460020B846002015FF020003
:105AE000EC5F030091D201002D560100010003007C
:105AF00080B582B000AF3A60FB1D021C1A70BB1D5E
:105B00000A1C1A703A68BB1D1978FB1D1B785BB222
:105B10001800034B9847C046BD4602B080BDC04642
:105B2000C1EB020080B582B000AF786039603A689E
:105B30007B6811001800034B9847C046BD4602B071
:105B400080BDC046F5EB020080B582B000AF786042
:105B50007B685B6898687B681B68DA68144B19007F
:105B6000144B9847031E1ED17B681B6898687B689E
:105B70001B68DA68104B19000E4B9847031E03D1BF
:105B80000E4B00221A700EE07B681B6898687B68D9
:105B90001B68DA680A4B1900064B9847031E02D1AE
:105BA000064B01221A70C046BD4602B080BDC046F9
:105BB00070600300E14603006060030014000020F1
:105BC0006860030090B58BB006AFF860B9607A608A
:105BD000BB68012B3BD0052B52D0002B00D055E0E9
:105BE0007B681B68002B25DB2A4B190001202A4B00
:105BF00098472A492A4AF86800230593002304930A
:105C0000002303930023029300230193244B00936A
:105C10000B000121234CA047031E05D0224B190085
:105C200001201D4B984731E0204B190001201A4BF1
:105C300098472BE01E4A1F4B19000120164B98472E
:105C40001B4AFB68110018001B4B98471EE07B683D
:105C50001B78002B0BD1194B1949F8680222194CFB
:105C6000A047194B190001200B4B98470EE07B68A9
:105C70001B781A00154B19000120074B984705E0C7
:105C8000134B19000120044B9847C046C046BD463F
:105C900005B090BD8860030091D20100A4600300AC
:105CA000B460030061EC0200BC600300E460030028
:105CB000B85A03000061030019EC0200495B0100BF
:105CC0007060030001EE0200386103004C610300C4
:105CD0008061030080B588B000AF3B1D18001F4BEA
:105CE00098473B1D1E4A9A603B1D80229200DA6055
:105CF0003B1D1C4A1A613B1D802292005A613B1DCC
:105D0000194A1A803B1D194A9A803A1D184B1100F6
:105D10001800184B98470300FB61FB69002B06DA5B
:105D2000FA69154B19000120144B9847FEE7144AF5
:105D30000F4B11001800134B98470300FB61FB69E0
:105D4000002B06DAFA69104B190001200B4B98471B
:105D5000FEE7C046BD4608B080BDC04659EB020014
:105D600034070020340900205B0700007017000092
:105D7000FC060020A9EA02009461030091D2010010
:105D8000C55B010099EB0200C861030080B584B0D7
:105D900000AF3B1D18000B4B98473B1D37221A6084
:105DA0003B1D00225A603B1D01221A723B1D02223C
:105DB000DA723B1D19000720034B9847C046BD46C9
:105DC00004B080BD915C0200C55C020080B500AFEC
:105DD000064B002207211800054B98470021072099
:105DE000044B9847C046BD4680BDC046F95D0100E2
:105DF00091580200F5580200B0B500AF0C4B1B687B
:105E00005A1C0B4B1A600A4B1B68282B02D9084BF3
:105E100001221A60064B1B68064A07483F21074CBF
:105E2000A047074B01221A70C046BD46B0BDC04610
:105E300098000020FC610300580000207545030015
:105E4000340B002080B500AF154A164B1100180026
:105E5000154B9847031E08D0144B19000120144B12
:105E6000984702E00020134B98470E4B34229B5C6E
:105E7000002BF7D1104B9847104B01221A70104A93
:105E8000104B11001800104B9847104B9847104BBF
:105E90009847104B03221A70C046BD4680BDC046CD
:105EA000B85A0300FC0600204DED0200BC5E030062
:105EB00091D20100811302003D4902009C040020A0
:105EC000A95701007557010085490200ED480200FD
:105ED0009D5301007404002090B585B000AF09E027
:105EE0000020284B9847284B1800284B984705203E
:105EF000274B98471020274B984703001A0001238F
:105F00005340DBB2002B09D02020224B98470300DE
:105F10001A0001235340DBB2002BE1D11E4B9847FE
:105F2000FA239B0018001A4B98471C4B00221A704A
:105F30003B001B4A13CA13C33B0030221A700F23C5
:105F4000FC183900174B0A221800174B984703001A
:105F500023700F23FB181B78002B08D00F23FB188E
:105F60001A78124B19000020114B984703E0114B8F
:105F70001800114B9847114B00221A70C046BD46BD
:105F800005B090BD8113020060460020751A030021
:105F900051B50100755001003D4902009C040020EC
:105FA00034620300D00600203DCD020010620300E1
:105FB00091D2010020620300A5D1010074040020E9
:105FC00080B500AF184B9847184B9847184A194BA3
:105FD00011001800184B9847184B9847184B34225B
:105FE0009B5C01225340DBB2002B0CD0154A144BB2
:105FF00011001800144B9847031E04D0134B1900CE
:106000000120134B98470E4B34229B5C002B04D08D
:10601000104B190001200E4B98470F4B01221A70AC
:10602000C046BD4680BDC0463D490200D55C01006A
:10603000255B0100F15A010085490200ED4802008C
:10604000FC060020B85A030019EC0200BC5E0300F5
:1060500091D20100406203007404002080B500AFBB
:106060000020104B9847104B1800104B9847104BCE
:106070009847104B9847104B9847104B9847104B38
:106080009847104B9847104B9847104B34229B5C15
:10609000002B04D00D4B642118000D4B9847C046CF
:1060A000BD4680BD8113020060460020751A0300C2
:1060B000A5630100D5600100616101003163010049
:1060C000D561010049620100BD620100FC060020AB
:1060D00049EE020090B585B002AF184B1B6839003D
:1060E00000221800164B98470300012B21D13B00DA
:1060F00000229B5E1C003B0002229B5E19003B00BD
:1061000004229B5E0F4A10480193009123003F2117
:106110000E4CA0470C4B18000D4B984704000A4A40
:106120000C490D48002301930123009323000B4CDD
:10613000A047C046BD4603B090BDC04680040020C5
:10614000A5A301005C620300180000207545030050
:10615000D346030080620300FC06002095ED020098
:1061600090B585B002AF124B1B68391D0022180094
:10617000104B98470300012B15D13B1D1B780E4A8D
:106180000E483F210E4CA0470C4B18000D4B984772
:1061900004000A4A0C490D4800230193012300938F
:1061A00023000B4CA047C046BD4603B090BDC0467F
:1061B00084040020A5A301009462030018000020BD
:1061C00075450300D346030098620300FC060020D7
:1061D00095ED020090B585B002AF124B1B68391DDA
:1061E00000221800104B98470300012B15D13B1DCE
:1061F0001B780E4A0E483F210E4CA0470C4B18004E
:106200000D4B984704000A4A0C490D48002301939E
:106210000123009323000B4CA047C046BD4603B0AA
:1062200090BDC0468C040020A5A30100AC62030011
:106230001800002075450300D3460300B062030038
:10624000FC06002095ED020090B585B002AF124B20
:106250001B68391D00221800104B98470300012BC2
:1062600015D13B1D1B780E4A0E483F210E4CA0470E
:106270000C4B18000D4B984704000A4A0C490D4876
:10628000002301930123009323000B4CA047C04639
:10629000BD4603B090BDC04690040020A5A30100F8
:1062A000AC6203001800002075450300D3460300CC
:1062B000CC620300FC06002095ED020090B585B08D
:1062C00002AF124B1B68391D00221800104B984773
:1062D0000300012B15D13B1D1B880E4A0E483F21A0
:1062E0000E4CA0470C4B18000D4B984704000A4A6F
:1062F0000C490D48002301930123009323000B4C0C
:10630000A047C046BD4603B090BDC04694040020DF
:10631000A5A30100AC62030018000020754503002E
:10632000D3460300E8620300FC06002095ED02005E
:1063300090B585B002AF124B1B68391D00221800C2
:10634000104B98470300012B15D13B1D1B880E4AAB
:106350000E483F210E4CA0470C4B18000D4B9847A0
:1063600004000A4A0C490D480023019301230093BD
:1063700023000B4CA047C046BD4603B090BDC046AD
:1063800088040020A5A30100AC62030018000020CF
:1063900075450300D346030000630300FC0600209C
:1063A00095ED020090B58BB002AF394B1B68082207
:1063B000B91800221800374B98470300012B63D10E
:1063C000354B364A03CA03C312881A800023FB6187
:1063D0002DE00823FA18FB69D3181B78FF2B2AD06D
:1063E0000823FA18FB69D3181B782D4A38000321BB
:1063F0002C4CA0473A00284B110018002A4B984714
:10640000FB6901330822BA18D35CFF2B0CD0FB695F
:106410000133132B08DC3B002C221A803A001E4B60
:1064200011001800204B9847FB690133FB61FB69A1
:10643000132BCEDD00E0C046174B18001B4B9847CE
:1064400003001A00144BD218194B10001900032333
:106450001A00184B9847104B19000120164B98470B
:10646000164B19000120144B98470B4B18000F4B8B
:1064700098470400084A1249124800230193012357
:1064800000932300104CA047C046BD4609B090BD04
:106490007C040020A5A3010018000020186303005D
:1064A000AC6203007545030059460300D346030060
:1064B00024630300E542030091D201002863030036
:1064C0002C630300FC06002095ED020090B58DB012
:1064D00002AF78606420974B9847974B984700220B
:1064E00004210520954B98470200954B1A60002225
:1064F00006210520914B98470200924B1A6000221A
:10650000142102208D4B984702008F4B1A60002205
:1065100002210520894B984702008C4B1A6000220B
:1065200001210720854B98470200894B1A60002201
:1065300002210320814B98470200864B1A600022FB
:10654000012105207D4B98470200834B1A600022F1
:1065500001210520794B98470200804B1A600022E8
:1065600002210520754B984702007D4B1A60744B41
:106570001B68002B1FD0734B1B68002B1BD0724B6A
:106580001B68002B17D0714B1B68002B13D0704B6E
:106590001B68002B0FD06F4B1B68002B0BD06E4B72
:1065A0001B68002B07D06D4B1B68002B03D06C4B76
:1065B0001B68002B03D16B4B18006B4B98476B4B40
:1065C0001800694B98476A4B98476A4B98476A4B43
:1065D00098476A4B98476A4B98476A4B98470C23F1
:1065E000FB18182200211800674B9847674B984703
:1065F0000C23FB18664A1A602723FC180C23FB188F
:106600001800644B9847030023702723FB181B785E
:106610005BB2002B09D02723FB1800229A565E4B51
:10662000190001205D4B9847FEE75D4A5D4B19005C
:1066300001205A4B98475C4B98475C4A5C4B1100D1
:1066400018005C4B98475C4A5548FF2300931300A1
:1066500002220721594CA04706E00020584B9847DA
:10666000584B1800584B98470220584B9847030046
:106670001A0001235340DBB2002BEED1FA239B001A
:1066800018002C4B9847524B01221A70504B1B7824
:106690005BB2012B0BD002DC002B05D010E0022BEB
:1066A00008D0032B09D00BE04A4B98470CE04A4B2B
:1066B000984709E0494B984706E0494B984703E063
:1066C000434B00221A70C0460B23FB1800221A709D
:1066D0001B4B1B680B22B91800221800414B98472E
:1066E0000300012B05D10B23FB181B785AB2384B42
:1066F0001A703D4B1B78DBB2002B17D03B4B1800B8
:106700003B4B98470400394A3A493B4800230193E0
:10671000012300932300394CA047344A384B190019
:1067200001201E4B9847304B00221A706420014B09
:106730009847ABE751B501000550010045980100AD
:1067400078040020800400207C04002098040020AD
:1067500084040020880400208C0400209004002081
:106760009404002040630300A5D101006863030086
:10677000415A01007D5A0100D55C01005D590100BC
:106780008D5D0100CD5D01001B430300B5F60100E6
:10679000095801008D1102008463030091D20100A9
:1067A0008C5E0300B0630300ED480200255B01002E
:1067B000F15A010085490200805E03009D1302002A
:1067C0008113020060460020751A03007550010015
:1067D00074040020C15F01005D600100455E01009E
:1067E000D95E0100A5A30100340B00205800002051
:1067F000D3460300D4630300FC06002095ED02009D
:10680000F063030090B583B000AF0200FB1D1A7067
:10681000FB1D1B78032B06D8054B1868F91D0023B8
:106820000A22044CA047C046BD4603B090BDC046F6
:1068300078040020ED9A010090B585B000AF786033
:10684000064B1868796800230A22054CA04703000C
:10685000FB60FB681800BD4605B090BD84040020B5
:10686000ED9A010090B585B000AF7860064B1868CE
:10687000796800230A22054CA0470300FB60FB68EF
:106880001800BD4605B090BD88040020ED9A0100B7
:1068900090B585B000AF7860064B18687968002322
:1068A0000A22054CA0470300FB60FB681800BD46A8
:1068B00005B090BD8C040020ED9A010090B585B024
:1068C00000AF7860064B1868796800230A22054CEF
:1068D000A0470300FB60FB681800BD4605B090BDF3
:1068E00094040020ED9A010090B585B000AF786067
:1068F000064B1868796800230A22054CA04703005C
:10690000FB60FB681800BD4605B090BD90040020F8
:10691000ED9A010080B582B000AF78607B680022FC
:106920001A70C046BD4602B080BD000080B582B07E
:1069300000AF02003960FB1D1A70FB1D1B78012B94
:106940000AD0022B0FD0002B14D10E4B0D4A9169A7
:106950003A680A439A610FE00A4B0A4AD1693A68D9
:106960000A43DA6108E0074B064A116A3A680A43AB
:106970001A6201E0172300E000231800BD4602B0B0
:1069800080BDC0460004004080B582B000AF786092
:106990007B6880221A707B6800225A707B68012213
:1069A0009A707B680022DA70C046BD4602B080BD96
:1069B00080B500AF054B9B78DBB21A000223134071
:1069C0005A1E9341DBB21800BD4680BD0020004135
:1069D00080B500AF024B9847C046BD4680BDC0465B
:1069E000E555020080B500AF024B9847C046BD4652
:1069F00080BDC0463956020080B582B000AF0200AB
:106A0000FB1D1A70074AFB1D1B7819001F230B4042
:106A1000012199400B0019008023D150C046BD468A
:106A200002B080BD00E100E080B584B000AF7860C6
:106A30007B681B68FB60FB68DB69072213405A1EFA
:106A40009341DBB21800BD4604B080BD80B582B072
:106A500000AF7860C0467B681800044B9847031E5F
:106A6000F9D1C046BD4602B080BDC046296A0100CA
:106A700080B584B000AF78607B681B68FB607B6882
:106A80001B6818000D4B9847030018000C4B9847E3
:106A90007B6818000B4B9847FB6883221A75FB68CC
:106AA00083221A76FB681B68022293431A00FB6854
:106AB0001A60C046BD4604B080BDC046B96A020037
:106AC000F96901004D6A0100F0B597B000AF786137
:106AD00039610023FB6300233B650023FB643B23F8
:106AE00010229446BC44634400221A707B691B68E0
:106AF000BB637B691B687B6323231022BA18D418FD
:106B00007B6B1800C04B9847030023700C231022A6
:106B10009446BC4463441800BC4B98473B69DB690E
:106B20007B643B691B6A3B647B6C002B06D17B6BEF
:106B300000211800B64B984703007B647B6CDAB2E7
:106B40000C2310218C46BC4463441A700C23102281
:106B50009446BC44634402225A707B6C1B0CDBB22B
:106B60000C2210218C46BC44624411001800A94B31
:106B700098473B6C002B06D17B6B01211800A44B7E
:106B8000984703003B643B6CDAB20C2310218C461F
:106B9000BC4463441A700C2310229446BC446344E2
:106BA00002225A703B6C1B0CDBB20C2210218C466B
:106BB000BC44624411001800964B98473B699A8A7E
:106BC0007B69DA803B69DA8A7B691A813B691B7EC3
:106BD000002B03D1904B9847031E02D080237B6586
:106BE00001E000237B653B691B69002B04D03B69F6
:106BF0001B697A6D13437B653B699B687A6D134310
:106C00007B653B6924229B5C002B04D07B6D80223A
:106C1000D20513437B653B699B6A002B04D03B691B
:106C20009B6A7A6D13437B653B692C229B5C002B2E
:106C300005D13B699A6880239B049A4204D17B6DFD
:106C40008022120513437B653B692D229B5C002B40
:106C500004D07B6D8022120413437B653B692E2296
:106C60009B5C002B04D07B6D8022D20313437B6599
:106C7000BB6B1A687B6D1A43BB6B1A60BB6B8022BF
:106C800052005A60232310229446BC4463441B786C
:106C90001433DBB21800614B98470300FB623B6979
:106CA0001B68FA2292005343BB623B695B68FA227D
:106CB000920053437B623B691B8E3B62584BF86AE0
:106CC000984705000E00564BB86A9847B860F960BF
:106CD000534BF86A9847534C534A544BA047030010
:106CE0000C003B607C604E4B386A984702000B00FA
:106CF0004C4C38687968A04703000C00180021004C
:106D00004B4C00224B4BA04703000C001A00230001
:106D1000444CB868F968A04703000C001A0023002F
:106D2000454C28003100A04703000C001D00260040
:106D3000BB6A5A003A4B1000984702000B003C4CCB
:106D400028003100A04703000C00180021003A4C35
:106D500000223A4BA04703000C001D002600BB6A2E
:106D60005A002F4B1000984702000B00344C2800AB
:106D70003100A04703000C0019002200314B08002D
:106D8000110098470300FB633B699A6880239B04CA
:106D90009A426AD1224BF86A9847254C02000B00B0
:106DA000A04703000C001D0026001D4B786A984781
:106DB0001C4C0022244BA04703000C001A002300A7
:106DC0001F4C28003100A04703000C0018002100D0
:106DD000194C0022194BA04703000C001900220097
:106DE000184B0800110098470300FB64FB6C002B54
:106DF0002ED0164B796AF86A984703009A1EFB6CEE
:106E0000D31A3B6531E0C046E96902008969010097
:106E10002D680200D9950200B16901009D9302001E
:106E2000054003007134030095D626E80B2E113E71
:106E3000E927030000002440713903000000F03FFF
:106E4000092E03009D3F0300000008409D1E030023
:106E50007B6A5A00FB6AD3185A1E7B6A59001D4B85
:106E6000100098470300013B3B65FB6BFF2B08DCE0
:106E7000FB6B002B05DB3B6DFF2B02DC3B6D002B1E
:106E800006DA3B2310229446BC44634440221A7025
:106E90003B2310229446BC4463441B78402B0ED005
:106EA000FB6BFF221A403B6D1B041900FF231B04E0
:106EB0000B401343FA6C12061A43BB6BDA603B2398
:106EC00010229446BC4463441B781800BD4617B09A
:106ED000F0BDC0469D1E030090B58BB000AFF860BA
:106EE000B9607A60FB68BA681A60FB681B687B62ED
:106EF000FB681B6818003B4B984703003B623B6AEA
:106F00000233FB613B6A1433BB610122FB699A4087
:106F1000130019000220344B98471423FB18180063
:106F2000324B98477B681A7B1423FB181A70BB6995
:106F3000DBB21422BA18110018002D4B9847BB6918
:106F4000DBB218002B4B98477B681B7B0021180095
:106F5000294B98477B6A1B680222134001D01C23EF
:106F60003BE07B6A1B680122134001D0052334E01B
:106F7000FB681B681722BC1818001A4B98470300BF
:106F800023701E4A1723FB181B78110018001C4B96
:106F900098471723FB181A781A4B9200F968D150BA
:106FA000FB6800221A76FB6800225A76FB680022F2
:106FB0005A83FB6800229A83FB682522002199549A
:106FC000FB6800221A627B6A14221A607A68FB68E6
:106FD000110018000C4B984703001800BD460BB079
:106FE00090BDC046E96902002D69010015690100E4
:106FF00079920200BD920200A167020015340100DF
:107000004D6A0200B8590020C96A010080B584B0F9
:1070100000AF78607B681B68FB607B6818000F4BD3
:1070200098477B6818000E4B98470E4B98477B6833
:107030001B6818000C4B9847030018000B4B98472F
:107040000B4B98477B681800044B9847FB6801225C
:107050001A60C046BD4604B080BDC0464D6A0100FE
:10706000716A0100D1690100B96A0200F59302005A
:10707000E569010080B584B000AF78607B681B686B
:10708000FB60FB681B7EDBB21A00022313400BD0AF
:10709000FB6802221A76FB685B8B9BB21A00022304
:1070A000134011D0412310E0FB685B8B9BB21A00A8
:1070B0000423134008D0FB685B68C02292021A4385
:1070C000FB685A60182300E000231800BD4604B096
:1070D00080BD80B584B000AF78607B681B68BB6002
:1070E0000E23FB1800221A800FE00E23FB180E223D
:1070F000BA18128801321A807B681B890E22BA18CE
:1071000012889A4201D312230EE0BB681B7EDBB2C9
:107110001A000123134006D1BB681B7EDBB21A00A4
:1071200002231340E1D000231800BD4604B080BD07
:1071300090B585B000AF78600A00FB1C1A707B68C0
:107140001B68FB60FB685B688022D2021A43FB6805
:107150005A60FB1C1A78FB685A620B23FC187B6888
:107160001800074B984703002370FB6801221A762A
:107170000B23FB181B781800BD4605B090BDC04618
:10718000D370010080B500AF0020024B9847C04685
:10719000BD4680BDC171010080B500AF0120024B2A
:1071A0009847C046BD4680BDC171010080B500AFA3
:1071B0000220024B9847C046BD4680BDC171010008
:1071C00080B584B000AF0200FB1D1A70FB1D1A7859
:1071D000284B9200D358FB60FB681B689B7BDBB29B
:1071E000FA68127E1340DAB2FB68597E0B23FB1853
:1071F0000A401A700B23FB181B780122134008D099
:10720000FB689B68FA6810009847FB681B680122BE
:107210009A730B23FB181B780222134008D0FB68DB
:10722000DB68FA6810009847FB681B6802229A73B3
:107230000B23FB181B781022134008D0FB681B6936
:10724000FA6810009847FB681B6810229A730B239A
:10725000FB181B782022134008D0FB685B69FA6892
:1072600010009847FB681B6820229A73C046BD46F1
:1072700004B080BDA047002080B584B000AF786026
:107280000023FB607B68002B01D172B6FEE708206B
:10729000114B98470300BB60BB68002B01D172B64D
:1072A000FEE7BB68002B12D00C4B9847BB687A688E
:1072B0001A60BB6800225A60094B1B68BA685A60A2
:1072C000074BBA681A60074B98470123FB60FB68BD
:1072D0001800BD4604B080BD91960100599501008B
:1072E000E80000207D95010080B588B000AFF8600F
:1072F000B9607A600123FB613D4B1B68002B44D1D0
:107300003B4B3C4A1A603AE0394B1B681B681B68D0
:10731000BB61BB691800384B984703007B61FA6872
:107320007B69D3181B78202B05D0FA687B69D318AA
:107330001B78002B1ED17A69B969FB6818002F4BA6
:107340009847031E16D12A4B1B681B681B7B5BB238
:10735000002B19DBFB681800294B984703001A0023
:10736000234B1B681B681B7B5BB29A420CD000232B
:10737000FB6109E01E4B1B685A681D4B1A601C4BD1
:107380001B68002BC0D100E0C046194B1B68002BC6
:107390000CD0FB69002B09D17A681A49BB68180028
:1073A000194B9847124B00221A601CE0104B1B68C7
:1073B000002B10D00E4B1B681B689B68FA6879681D
:1073C000B86898470300FB61FB69002B0BD1084BA1
:1073D00000221A6007E07A680C49BB6818000A4B63
:1073E00098470023FB61FB691800BD4608B080BDCB
:1073F000380B0020E0000020D3460300E1460300E4
:10740000717401004C64030003470300A46403008B
:1074100080B586B000AFF860B9607A60114B1B6828
:10742000002B02D10F4B104A1A600E4B1B681B68D1
:107430005968BA68FB6818000C4B9847094B1B68E1
:107440005A68084B1A60074B1B68002B02D10023B7
:107450007B6101E001237B617B691800BD4606B0BA
:1074600080BDC0463C0B0020E00000200347030025
:1074700080B584B000AF78600F23FB1800221A702B
:107480000023BB6018E07B681B78202B0FD1BB6802
:10749000012B0ED00F23FB181B785BB2DBB201333C
:1074A000DAB20F23FB181A700123BB6001E000233E
:1074B000BB607B6801337B607B681B78002BE2D16B
:1074C000BB68012B09D10F23FB181B785BB2DBB221
:1074D000013BDAB20F23FB181A700F23FB181B783D
:1074E0005BB21800BD4604B080BD000080B582B01C
:1074F00000AF78607B681800034B984703001800C2
:10750000BD4602B080BDC046B5AC010080B582B0BA
:1075100000AF78607B681800034B984703001800A1
:10752000BD4602B080BDC046E1AC010080B582B06E
:1075300000AF78607B681800034B984703009BB24C
:107540001800BD4602B080BD11C0010080B582B0F8
:1075500000AF78607B681800044B984703001B0C51
:107560009BB21800BD4602B080BDC04611C00100EC
:1075700080B582B000AF78600A00BB1C1A807B68BF
:107580001800084B984703001B0C1A04BB1C1B88EF
:107590001A437B6811001800034B9847C046BD464C
:1075A00002B080BD11C0010039C0010080B582B0B9
:1075B00000AF78600A00BB1C1A807B681800094B7A
:1075C000984703001B041A0CBB1C1B881B041A439E
:1075D0007B6811001800044B9847C046BD4602B0B6
:1075E00080BDC04611C0010039C0010080B582B025
:1075F00000AF78607B681800034B984703009BB28C
:107600001800BD4602B080BDED74010080B582B0A7
:1076100000AF78607B681800044B984703001B0C90
:107620009BB21800BD4602B080BDC046ED7401009B
:1076300080B582B000AF78600A00BB1C1A807B68FE
:107640001800084B984703001B0C1A04BB1C1B882E
:107650001A437B6811001800034B9847C046BD468B
:1076600002B080BDED740100C9AC010080B582B0EC
:1076700000AF78600A00BB1C1A807B681800094BB9
:10768000984703001B041A0CBB1C1B881B041A43DD
:107690007B6811001800044B9847C046BD4602B0F5
:1076A00080BDC046ED740100C9AC010080B584B056
:1076B00000AF78600023FB600023BB6018E0144B30
:1076C000BA68D200D358002B0FD1114BBA68D20040
:1076D0007968D1500E4ABB68DB00D318043301220D
:1076E00052421A600123FB6005E0BB680133BB60B6
:1076F000BB68092BE3DDFB68002B04D1054B1B683D
:107700005A1C044B1A60C046BD4604B080BDC0463A
:10771000440B0020940B002090B585B000AF0023EF
:10772000FB602B4B1B68BB60294B1A68294BD200AE
:10773000D358002B35D0264B1A68264BD200D3588D
:107740001800254B984703007B60214B1B68214A9A
:10775000DB00D31804331A687B689A4207D91C4BA4
:107760001B681C4ADB00D31804337A681A60184B74
:107770001A68184BD200D3581800184B98470300CA
:10778000DBB21900124B1B68124ADB00D31804331A
:107790001B680A000321EA20114CA047FB68013353
:1077A000FB600B4B1B685A1C0E4B0A2110009847BC
:1077B0000B001A00064B1A60FB68002B04DC044B1C
:1077C0001A68BB689A42AFD1C046BD4605B090BDAD
:1077D000980B0020440B0020B1C101002D75010061
:1077E000758001007D21030080B500AF024B9847F2
:1077F00003001800BD4680BD5DC2010090B585B094
:1078000002AF7860144B98477B68012B02D1134B71
:1078100098470EE07B68022B04D1114B1800114BE6
:10782000984706E07B68002B03D00F4B18000D4BE8
:1078300098470E4B1B68002B0AD196235A000C491F
:107840000C480A4B01930423009300230A4CA047E1
:10785000C046BD4603B090BD41870100997C010040
:1078600004650300E98D010044650300400B00201E
:10787000786503007D780100B5B1010080B582B064
:1078800000AF7860044B9847031E01D0034B984724
:107890000420034B9847F5E7DD7C010019770100D0
:1078A00051B5010080B500AF604B1B680922DA6555
:1078B0005E4B1B6864220A2199545C4B1B6865224D
:1078C0000A219954594B1B6866220A219954574B37
:1078D0001B6867220F219954544B1B6868220521AD
:1078E0009954524B1B686922052199544F4B1B68D0
:1078F0006A22052199544D4B1B686B22052199542E
:107900004A4B1B686C2205219954484B1B68702216
:107910000F219954454B1B6871220F219954434BF9
:107920001B6872220F219954404B1B6873220F2150
:1079300099543E4B1B6874220F2199543B4B1B6892
:1079400075220F219954394B1B6876220F219954C7
:10795000364B1B6877220F219954344B1B687822D1
:107960000F219954314B1B687C22102199542F4BC5
:107970001B687D22102199542C4B1B687E221021FC
:1079800099542A4B1B687F2213219954274B1B685B
:10799000802211219954254B1B6881221021995472
:1079A000224B1B68822213219954204B1B6883228F
:1079B000132199541D4B1B688422132199541B4B8E
:1079C0001B68882200219952184B1B688A22A0212B
:1079D0009952164B1B688C22A02149009952134BD7
:1079E0001B688E22F02149009952104B1B6890228F
:1079F0000F4999520D4B1B6892220E4999520B4B1D
:107A00001B6894220C499952084B1B6896220B491B
:107A10009952064B1B6898228C21C9009952034B3E
:107A20001B68074A1A66C046BD4680BD580C002038
:107A3000FD02000052030000A20300000104000048
:107A4000BF04000080B500AF2E4B00225A822D4BA0
:107A50005A8A2C4B1A802B4B0A229A82294B9A8ADB
:107A6000284B5A80274B1422DA82264BDA8A254B80
:107A70009A80244B1E221A83224B1A8B214BDA80C8
:107A8000204B2D225A831F4B5A8B1E4B1A811D4BA4
:107A900032229A831B4B9A8B1A4B5A81194B3722ED
:107AA000DA83184BDA8B174B9A81164B3C221A84D7
:107AB000144B1A8C134BDA81124B41225A84114B0E
:107AC0005A8C104B1A820F4B09229A840D4B1322A9
:107AD000DA840C4B1D221A850A4B2C225A85094B3D
